:020000040800F2
:100000000028002021150008B1140008B7140008CA
:10001000BD140008C3140008C91400080000000043
:10002000000000000000000000000000CF140008E5
:10003000DB14000800000000E7140008F3140008B7
:100040006915000869150008691500086915000898
:100050006915000869150008691500086915000888
:100060006915000869150008691500086915000878
:100070006915000869150008691500086915000868
:100080006915000869150008691500086915000858
:100090006915000869150008691500086915000848
:1000A0006915000869150008691500086915000838
:1000B0000115000869150008000000006915000816
:1000C0006915000800000000000000006915000824
:1000D0000000000069150008691500080000000014
:1000E000691500086915000869150008000000007E
:1000F0000000000000000000000000000000000000
:0C01000000000000000000005FF808F1A3
:10010C0010B5054C237833B9044B13B10448AFF345
:10011C0000800123237010BD54000020000000005B
:10012C00982B000808B5034B1BB103490348AFF3E8
:10013C00008008BD0000000058000020982B00082B
:10014C0080B483B000AF78600B467B80174B1B6884
:10015C00022B26DC154B1B6815497A6841F83320B5
:10016C00124B1B68124ADB0013447A889A800F4B9F
:10017C001B68104A0021D1540C4B1B680E4A0121FC
:10018C00D1540A4B1B680D4A0121D154074B1B68F3
:10019C000B4A0121D154054B1B680133034A1360F0
:1001AC0000E000BF0C37BD4680BC704770000020DB
:1001BC0084000020800000209C0000207C00002097
:1001CC00A000002080B582B000AF7860324A7B6816
:1001DC0052F82330184601F0F9F80346002B2DD0C5
:1001EC002D4A7B6852F823300A21184601F09EF8FC
:1001FC002A4A7B6813441978294A7B6813440A46B7
:10020C001A70284A7B6813441978244A7B68134473
:10021C000A461A70244A7B6852F8332022497B68BC
:10022C00DB000B449B881946104601F083FC034607
:10023C0019461C4A7B6813440A461A70184A7B6894
:10024C0013441B78002B0DD1144A7B6813441B7884
:10025C00002B07D1134A7B6813441B78002B01D168
:10026C00002314E00E4A7B6813441B78012B0DD13C
:10027C000A4A7B6813441B78012B07D1094A7B6817
:10028C0013441B78012B01D1012300E002231846F3
:10029C000837BD4680BD00BF000000207C00002058
:1002AC009C000020A00000208400002080B582B0BB
:1002BC0000AF7860454A7B6813441B78052B7AD8CD
:1002CC0001A252F823F000BFED0200080103000860
:1002DC00190300082F030008730300087F030008AC
:1002EC000A21002001F022F8384A7B6813440122CD
:1002FC001A7067E07868FFF765FF0346002B5CD146
:10030C00324A7B68134402221A7056E04FF47A7119
:10031C00032001F00BF82D4A7B68134403221A705A
:10032C0050E07868FFF74EFF0346012B04D1274AB3
:10033C007B68134401221A70032001F047F803462E
:10034C00002B3CD07868FFF73DFF0346002B36D1DD
:10035C004FF47A71032000F0E9FF1C4A7B681344C8
:10036C0004221A702BE0194A7B68134405221A7078
:10037C0028E07868FFF726FF0346012B04D1134AC7
:10038C007B68134401221A70032001F01FF8034606
:10039C00002B16D07868FFF715FF0346002B10D101
:1003AC004FF47A71032000F0C1FF084A7B681344B4
:1003BC0004221A7005E000BF04E000BF02E000BF99
:1003CC0000E000BF00BF0837BD4680BD80000020A4
:1003DC0080B582B000AF7860454A7B6813441B78C7
:1003EC00052B7AD801A252F823F000BF11040008A3
:1003FC00250400083D040008530400089704000875
:10040C00A30400080A21012000F090FF384A7B6801
:10041C00134401221A7067E07868FFF7D3FE034695
:10042C00002B5CD1324A7B68134402221A7056E0CE
:10043C004FF47A71032000F079FF2D4A7B68134446
:10044C0003221A7050E07868FFF7BCFE0346012BBC
:10045C0004D1274A7B68134401221A70032000F050
:10046C00B5FF0346002B3CD07868FFF7ABFE034684
:10047C00002B36D14FF47A71032000F057FF1C4A41
:10048C007B68134404221A702BE0194A7B681344CE
:10049C0005221A7028E07868FFF794FE0346012BBA
:1004AC0004D1134A7B68134401221A70032000F014
:1004BC008DFF0346002B16D07868FFF783FE0346AA
:1004CC00002B10D14FF47A71032000F02FFF084A53
:1004DC007B68134404221A7005E000BF04E000BFDF
:1004EC0002E000BF00E000BF00BF0837BD4680BD82
:1004FC008000002080B582B000AF7860454A7B68F0
:10050C0013441B78052B7AD801A252F823F000BFB4
:10051C003505000849050008610500087705000845
:10052C00BB050008C70500080A21022000F0FEFEEA
:10053C00384A7B68134401221A7067E07868FFF729
:10054C0041FE0346002B5CD1324A7B6813440222E5
:10055C001A7056E04FF47A71032000F0E7FE2D4A32
:10056C007B68134403221A7050E07868FFF72AFE68
:10057C000346012B04D1274A7B68134401221A70CD
:10058C00032000F023FF0346002B3CD07868FFF7D4
:10059C0019FE0346002B36D14FF47A71032000F07C
:1005AC00C5FE1C4A7B68134404221A702BE0194ABE
:1005BC007B68134405221A7028E07868FFF702FE66
:1005CC000346012B04D1134A7B68134401221A7091
:1005DC00032000F0FBFE0346002B16D07868FFF7D3
:1005EC00F1FD0346002B10D14FF47A71032000F07B
:1005FC009DFE084A7B68134404221A7005E000BF74
:10060C0004E000BF02E000BF00E000BF00BF0837FD
:10061C00BD4680BD8000002080B483B000AF786000
:10062C00064A7B6813441B78022B01D1012300E09E
:10063C00002318460C37BD4680BC70478000002054
:10064C0080B483B000AF7860064A7B6813441B7893
:10065C00042B01D1012300E0002318460C37BD46C2
:10066C0080BC70478000002080B584B000AF7860FB
:10067C0039607B68092B3EDC7B68002B3BDB3B68DD
:10068C00002B38DB3B68092B35DC0023FB602EE0AC
:10069C001B4AFB6832F813101A487A681346DB00C1
:1006AC009B1AC218FB6813441B78002B14BF012340
:1006BC000023DBB21A46144801F053FA134AFB68C4
:1006CC0032F813100F483A681346DB009B1AC21815
:1006DC00FB6813441B78002B14BF01230023DBB2EF
:1006EC001A46094801F03DFAFB680133FB60FB68D0
:1006FC00062BCDDD00E000BF1037BD4680BD00BF2E
:10070C000C000020B02B0008000C01401C00002045
:10071C0080B584B000AF78600023FB602BE0FA68F2
:10072C007B689A4212D1184AFB6832F813300022C7
:10073C001946164801F015FA154AFB6832F81330C1
:10074C0000221946114801F00CFA11E00E4AFB6820
:10075C0032F81330012219460C4801F002FA0C4A07
:10076C00FB6832F8133001221946084801F0F9F9F8
:10077C00FB680133FB60FB68012BD0DD00BF00BFC1
:10078C001037BD4680BD00BF2C0000200008014082
:10079C003000002080B582B000AF78603960062050
:1007AC0000F014FE0346002B49D0FA21062000F07D
:1007BC00BDFD254B1B68002B02D0012B25D03FE043
:1007CC007A68224B83FB02139910D317C81A03467D
:1007DC009B0003445B00D01A3A681C4B83FB02134A
:1007EC009910D317C91A0B469B000B445B00D11A06
:1007FC00FFF73AFF144B1B681846FFF789FF124BA3
:10080C001B680133104A13601AE07B680F4A82FBA5
:10081C0003129210DB17D01A3B680C4A82FB0312AE
:10082C009210DB17D31A1946FFF71EFF064B1B68F5
:10083C001846FFF76DFF044B00221A6000E000BF62
:10084C0000BF0837BD4680BD740000206766666631
:10085C0080B500AF00221021074801F082F9012277
:10086C002021054801F07DF901224021024801F0C8
:10087C0078F900BF80BD00BF0008014080B500AF13
:10088C0001221021074801F06CF9002220210548B3
:10089C0001F067F901224021024801F062F900BF22
:1008AC0080BD00BF0008014080B500AF01221021BF
:1008BC00074801F056F901222021054801F051F9B1
:1008CC0000224021024801F04CF900BF80BD00BF5E
:1008DC000008014080B500AF00228021084801F0DB
:1008EC0040F901224FF48071054801F03AF90122D8
:1008FC004FF40071024801F034F900BF80BD00BF15
:10090C000008014080B500AF01228021084801F0A9
:10091C0028F900224FF48071054801F022F90122D8
:10092C004FF40071024801F01CF900BF80BD00BFFC
:10093C000008014080B500AF01228021084801F079
:10094C0010F901224FF48071054801F00AF90022D8
:10095C004FF40071024801F004F900BF80BD00BFE4
:10096C000008014080B500AF012210210F4801F0B2
:10097C00F8F8012220210D4801F0F3F80122402162
:10098C000A4801F0EEF801228021084801F0E9F84C
:10099C0001224FF48071054801F0E3F801224FF475
:1009AC000071024801F0DDF800BF80BD0008014075
:1009BC0080B500AF072000F009FD0346002B0CD0DA
:1009CC004FF4FA71072000F0B1FC1021044801F03B
:1009DC00E0F88021024801F0DCF800BF80BD00BFC8
:1009EC000008014080B500AF072000F0EFFC034683
:1009FC00002B0DD04FF4FA71072000F097FC40212A
:100A0C00044801F0C6F84FF40071024801F0C1F837
:100A1C0000BF80BD0008014080B500AF072000F08A
:100A2C00D5FC0346002B0DD04FF4FA71072000F0D3
:100A3C007DFC2021044801F0ACF84FF48071024891
:100A4C0001F0A7F800BF80BD0008014080B500AFE1
:100A5C00A74B1B78062B00F2D58101A252F823F08C
:100A6C00890A0008A70A0008E70B0008470B0008D2
:100A7C00870C0008210D0008930D00084FF4FA7143
:100A8C00042000F053FCFFF76DFF9A4B1B689A4A49
:100A9C001360974B01221A70C1E1FFF7D9FE0420B5
:100AAC0000F094FC0346002B09D04FF4FA7104209B
:100ABC0000F03CFC904B1B68013B8F4A13608E4B43
:100ACC001B688E4A126811461846FFF763FE002019
:100ADC00FFF7A2FD0346002B10D0FFF743FF854B19
:100AEC001B68874A1360874B1B68874A1360874BC8
:100AFC001B68874A13607E4B04221A700220FFF792
:100B0C009FFD0346002B0BD07E4B03221A60794BC2
:100B1C0005221A607D4B02221A60754B00221A7056
:100B2C00754B1B68002B00F36F81764B1B68724A68
:100B3C0013606F4B03221A7066E1FFF7B5FE0420B9
:100B4C0000F044FC0346002B09D04FF4FA7104204A
:100B5C0000F0ECFB684B1B68013B674A1360664B6B
:100B6C001B68664A126811461846FFF713FE0020F0
:100B7C00FFF752FD0346002B10D0FFF7F3FE5D4B41
:100B8C001B685F4A13605F4B1B685F4A13605F4BC7
:100B9C001B685F4A1360564B04221A700220FFF741
:100BAC004FFD0346002B0BD0564B03221A60514BC2
:100BBC0005221A60554B02221A604D4B00221A7006
:100BCC004D4B1B68002B00F32181504B1B684A4A8C
:100BDC001360474B02221A7018E1FFF74FFE0420F6
:100BEC0000F0F4FB0346002B09D04FF4FA710420FB
:100BFC0000F09CFB404B1B68013B3F4A13603E4B93
:100C0C001B683E4A126811461846FFF7C3FD0020C8
:100C1C00FFF702FD0346002B10D0FFF7A3FE354B68
:100C2C001B68374A1360374B1B68374A1360374BC6
:100C3C001B68374A13602E4B04221A700220FFF7F0
:100C4C00FFFC0346002B0BD02E4B03221A60294BC2
:100C5C0005221A602D4B02221A60254B00221A70B5
:100C6C00254B1B68002B40F0D380224B1B68224A7B
:100C7C0013601F4B01221A70CAE0FFF799FE012086
:100C8C00FFF7CAFC0346002B04D01D4B1B68013335
:100C9C001B4A13600120FFF7D3FC0346002B04D042
:100CAC00174B1B68013B164A1360154B1B6802213E
:100CBC001846FFF76FFD0220FFF7AEFC0346002B32
:100CCC0008D00F4B1B680B4A1360FFF74BFE084B09
:100CDC0005221A700020FFF79FFC0346002B00F042
:100CEC009980FFF73FFE024B05221A7092E000BF7D
:100CFC007800002038000020400000204400002034
:100D0C00A400002034000020AC0000203C00002097
:100D1C00A8000020FFF766FE0120FFF77DFC0346CC
:100D2C00002B04D03F4B1B6801333E4A136001205B
:100D3C00FFF786FC0346002B04D03A4B1B68013BA3
:100D4C00384A1360374B1B6803211846FFF722FD06
:100D5C000220FFF761FC0346002B08D0314B1B68C7
:100D6C00314A1360FFF7FEFD304B06221A7000204B
:100D7C00FFF752FC0346002B4ED0FFF7F3FD2B4B35
:100D8C0006221A7048E0FFF747FE0120FFF744FCEB
:100D9C000346002B04D0264B1B680133244A1360F6
:100DAC000120FFF74DFC0346002B04D0204B1B68A1
:100DBC00013B1F4A13601E4B1B6804211846FFF7AA
:100DCC00E9FC0220FFF728FC0346002B0BD0184B44
:100DDC001B68184A1360FFF7C5FD144B00221A70EC
:100DEC00154B00221A700020FFF716FC0346002B4F
:100DFC0014D0FFF7B7FD0D4B00221A700E4B0022DA
:100E0C001A700BE000BF0AE000BF08E000BF06E06C
:100E1C0000BF04E000BF02E000BF00E000BF00BF65
:100E2C0080BD00BFAC000020340000207800002002
:100E3C00A80000203C0000207900002080B500AF05
:100E4C007B4B1B78062B00F2EA8001A252F823F0B0
:100E5C00790E0008970E0008A50F00081F0F000858
:100E6C002B1000082B1000082B1000084FF4FA71FF
:100E7C00052000F05BFAFFF775FD6E4B1B686E4AA0
:100E8C0013606B4B03221A70D0E0FFF723FD052093
:100E9C0000F09CFA0346002B09D04FF4FA710520A0
:100EAC0000F044FA644B1B68013B634A1360634BCC
:100EBC001B68614A126811461846FFF76BFC00204C
:100ECC00FFF7AAFB0346002B04D0FFF74BFD584B52
:100EDC0004221A700220FFF7B3FB0346002B0BD041
:100EEC00544B03221A60564B05221A60554B0222B2
:100EFC001A604F4B00221A704F4B1B68002B00F3EB
:100F0C0090804C4B1B684C4A1360494B03221A705F
:100F1C0087E0FFF70FFD052000F058FA0346002B81
:100F2C0009D04FF4FA71052000F000FA424B1B680F
:100F3C00013B414A1360414B1B683F4A1268114602
:100F4C001846FFF727FC0020FFF766FB0346002B33
:100F5C0004D0FFF707FD364B04221A700220FFF76E
:100F6C006FFB0346002B0BD0324B03221A60344B21
:100F7C0005221A60334B02221A602D4B00221A7084
:100F8C002D4B1B68002B4EDC2E4B1B682A4A136022
:100F9C00274B02221A7046E0FFF7B4FC052000F044
:100FAC0015FA0346002B09D04FF4FA71052000F016
:100FBC00BDF9214B1B68013B1F4A13601F4B1B687B
:100FCC001D4A126811461846FFF7E4FB0020FFF794
:100FDC0023FB0346002B04D0FFF7C4FC144B042264
:100FEC001A700220FFF72CFB0346002B0BD0114B81
:100FFC0003221A60124B05221A60124B02221A604D
:10100C000B4B00221A700C4B1B68002B0DDC0C4B8D
:10101C001B68094A1360064B01221A7005E000BFD9
:10102C0004E000BF02E000BF00E000BF00BF80BDD5
:10103C0079000020340000204400002040000020F3
:10104C00380000203C00002080B500AF00F088FA8A
:10105C0000F072F800F0F8F800F0AAF8344801F04B
:10106C00DDF91921062000F061F94FF4FA7107201F
:10107C0000F05CF902212F48FFF762F804212D489B
:10108C00FFF75EF808212B48FFF75AF801224FF4BE
:10109C008061284800F065FD01224FF4006125486D
:1010AC0000F05FFD01224FF48051224800F059FD01
:1010BC0001224FF400511F4800F053FD0020FFF7B0
:1010CC00F5F80120FFF784F90220FFF713FA00204E
:1010DC00FFF7A2FA0346002B0BD10120FFF79CFA75
:1010EC000346002B05D10220FFF796FA0346002B8E
:1010FC0003D001210F4800F04CFD0020FFF7A0FAAF
:10110C000346002B0BD10120FFF79AFA0346002B64
:10111C0005D10220FFF794FA0346002B03D00121DE
:10112C00044800F036FDFFF791FCFFF787FEC5E79A
:10113C00B00000200008014080B590B000AF07F16E
:10114C00180328220021184601F018FD3B1D00222F
:10115C001A605A609A60DA601A610223BB6101233B
:10116C00BB621023FB6200237B6307F11803184654
:10117C0000F028FD0346002B01D000F0D1F80F231E
:10118C007B600023BB600023FB6000233B610023DA
:10119C007B613B1D0021184600F094FF0346002B99
:1011AC0001D000F0BDF800BF4037BD4680BD000047
:1011BC0080B586B000AF07F1080300221A605A60B0
:1011CC009A60DA603B4600221A605A601D4B4FF061
:1011DC0080421A601B4B41F63F725A60194B002239
:1011EC009A60184B0922DA60164B00221A61154BD3
:1011FC0000229A61134801F0C1F80346002B01D07C
:10120C0000F08EF84FF48053BB6007F108031946C9
:10121C000C4801F03FFA0346002B01D000F080F897
:10122C0000233B6000237B603B461946054801F0D8
:10123C0017FC0346002B01D000F072F800BF1837E2
:10124C00BD4680BDB000002080B586B000AF07F170
:10125C00080300221A605A609A60DA60284B9B6976
:10126C00274A43F004039361254B9B6903F0040365
:10127C007B607B68224B9B69214A43F00803936196
:10128C001F4B9B6903F008033B603B68002243F64D
:10129C00F1711C4800F065FC002243F6FF711A48FE
:1012AC0000F05FFC43F6F173BB600123FB6000238D
:1012BC003B6102237B6107F108031946114800F0DA
:1012CC00BFFA0E23BB600023FB6001233B6107F1D7
:1012DC00080319460B4800F0B3FA43F6FF73BB60E2
:1012EC000123FB6000233B6102237B6107F10803B0
:1012FC001946054800F0A4FA00BF1837BD4680BD5A
:10130C000010024000080140000C014080B582B082
:10131C0000AF786000F02AF800BF0837BD4680BDEA
:10132C0080B400AF72B600BFFEE7000080B483B09B
:10133C0000AF786039603B680A4A82FB0312921056
:10134C00DB17D21A08497B6841F83320064A7B68C0
:10135C00DB00134400225A6000BF0C37BD4680BC32
:10136C00704700BF67666666F800002080B483B0E3
:10137C0000AF00237B601DE0134A7B6852F83330CA
:10138C00002B14DD104A7B6852F833305A1E0E497C
:10139C007B6841F833200C4A7B6852F83330002BC1
:1013AC0005DC094A7B68DB00134401225A607B6828
:1013BC0001337B607B68092BDEDD00BF00BF0C377F
:1013CC00BD4680BC704700BFF800002080B483B0DD
:1013DC0000AF7860074A7B68DB0013445B68002B26
:1013EC0001D0012300E0002318460C37BD4680BC19
:1013FC00704700BFF800002080B485B000AF154BDB
:10140C009B69144A43F001039361124B9B6903F0EF
:10141C000103BB60BB680F4BDB690E4A43F0805382
:10142C00D3610C4BDB6903F080537B607B680A4B08
:10143C005B68FB60FB6823F0E063FB60FB6843F0D8
:10144C008063FB60044AFB68536000BF1437BD46E1
:10145C0080BC7047001002400000014080B584B091
:10146C0000AF78607B681B68B3F1804F13D10C4BD5
:10147C00DB690B4A43F00103D361094BDB6903F0D1
:10148C000103FB60FB68002200211C2000F0A1F985
:10149C001C2000F0BAF900BF1037BD4680BD00BF5C
:1014AC000010024080B400AFFEE780B400AFFEE74E
:1014BC0080B400AFFEE780B400AFFEE780B400AFAD
:1014CC00FEE780B400AF00BFBD4680BC704780B45F
:1014DC0000AF00BFBD4680BC704780B400AF00BFFA
:1014EC00BD4680BC704780B500AF00F07FF800BFF0
:1014FC0080BD000080B500AF024800F0DBFF00BFEC
:10150C0080BD00BFB000002080B400AF00BFBD465E
:10151C0080BC7047FFF7F8FF0B480C490C4A0023BE
:10152C0002E0D458C4500433C4188C42F9D3094A8D
:10153C00094C002301E013600432A242FBD301F0FA
:10154C00F9FAFFF781FD70470000002054000020DD
:10155C00242C0008540000204C010020FEE7000061
:10156C0080B500AF084B1B68074A43F010031360AB
:10157C00032000F023F90F2000F008F8FFF73CFFE0
:10158C000023184680BD00BF0020024080B582B009
:10159C0000AF7860124B1A68124B1B7819464FF447
:1015AC007A73B3FBF1F3B2FBF3F3184600F03BF99B
:1015BC000346002B01D001230EE07B680F2B0AD8C9
:1015CC00002279684FF0FF3000F003F9064A7B687F
:1015DC001360002300E0012318460837BD4680BD88
:1015EC0048000020500000204C00002080B400AFC8
:1015FC00054B1B781A46054B1B681344034A1360B2
:10160C0000BFBD4680BC7047500000204801002040
:10161C0080B400AF024B1B681846BD4680BC7047B7
:10162C004801002080B485B000AF78607B6803F07F
:10163C000703FB600C4BDB68BB60BA684FF6FF031B
:10164C001340BB60FB681A02BB68134343F0BF63D3
:10165C0043F40033BB60044ABB68D36000BF14374B
:10166C00BD4680BC704700BF00ED00E080B400AF09
:10167C00044BDB681B0A03F007031846BD4680BC0D
:10168C00704700BF00ED00E080B483B000AF0346AC
:10169C00FB7197F90730002B0BDBFB7903F01F0272
:1016AC00064997F907305B09012000FA02F241F86C
:1016BC00232000BF0C37BD4680BC704700E100E022
:1016CC0080B483B000AF03463960FB7197F90730E3
:1016DC00002B0ADB3B68DAB20C4997F90730120190
:1016EC00D2B20B4483F800230AE03B68DAB2084913
:1016FC00FB7903F00F03043B1201D2B20B441A76B0
:10170C0000BF0C37BD4680BC704700BF00E100E055
:10171C0000ED00E080B489B000AFF860B9607A6089
:10172C00FB6803F00703FB61FB69C3F10703042BA0
:10173C0028BF0423BB61FB690433062B02D9FB6968
:10174C00033B00E000237B614FF0FF32BB6902FAE0
:10175C0003F3DA43BB681A407B699A404FF0FF31C0
:10176C007B6901FA03F3D9437B680B40134318469A
:10177C002437BD4680BC704780B582B000AF78601E
:10178C007B68013BB3F1807F01D301230FE00A4A50
:10179C007B68013B53600F214FF0FF30FFF790FF48
:1017AC00054B00229A60044B07221A60002318464E
:1017BC000837BD4680BD00BF10E000E080B582B0A8
:1017CC0000AF78607868FFF72DFF00BF0837BD4683
:1017DC0080BD80B586B000AF0346B9607A60FB73FC
:1017EC0000237B61FFF742FF78617A68B9687869FA
:1017FC00FFF790FF024697F90F3011461846FFF796
:10180C005FFF00BF1837BD4680BD80B582B000AF0A
:10181C000346FB7197F907301846FFF735FF00BFF9
:10182C000837BD4680BD80B582B000AF786078685F
:10183C00FFF7A2FF034618460837BD4680BD0000DF
:10184C0080B48BB000AF7860396000237B620023DA
:10185C003B6248E101227B6A02FA03F3FB613B68BD
:10186C001B68FA691340BB61BA69FB699A4240F084
:10187C0037813B685B68A34A93425ED0A14A93428E
:10188C0075D8A14A934258D09F4A93426FD89F4A29
:10189C00934252D09D4A934269D89D4A93424CD070
:1018AC009B4A934263D89B4A934246D0994A9342AF
:1018BC005DD8122B2AD8122B59D801A252F823F03A
:1018CC004719000821190008331900087519000878
:1018DC007B1900087B1900087B1900087B1900088C
:1018EC007B1900087B1900087B1900087B1900087C
:1018FC007B1900087B1900087B1900087B1900086C
:10190C007B190008291900083D190008824A9342E6
:10191C0013D02CE03B68DB683B6229E03B68DB685A
:10192C0004333B6224E03B68DB6808333B621FE016
:10193C003B68DB680C333B621AE03B689B68002B0E
:10194C0002D104233B6213E03B689B68012B05D159
:10195C0008233B627B68FA691A6109E008233B6241
:10196C007B68FA695A6103E000233B6200E000BF28
:10197C00BB69FF2B01D87B6801E07B6804337B617A
:10198C00BB69FF2B02D87B6A9B0002E07B6A083B99
:10199C009B003B617B691A680F213B6901FA03F3D9
:1019AC00DB431A40396A3B6901FA03F31A437B693A
:1019BC001A603B685B6803F08053002B00F090804A
:1019CC00564B9B69554A43F001039361534B9B69FA
:1019DC0003F00103BB60BB68514A7B6A9B0802336E
:1019EC0052F82330FB607B6A03F003039B000F2249
:1019FC0002FA03F3DB43FA681340FB607B68494A45
:101A0C0093420DD07B68484A934207D07B68474A83
:101A1C00934201D1022304E0032302E0012300E0FE
:101A2C0000237A6A02F0030292009340FA6813438F
:101A3C00FB603B497B6A9B080233FA6841F8232020
:101A4C003B685B6803F48013002B06D0384B9A6814
:101A5C003749BB6913438B6006E0354B9A68BB6909
:101A6C00DB43334913408B603B685B6803F4001322
:101A7C00002B06D02E4BDA682D49BB691343CB6083
:101A8C0006E02B4BDA68BB69DB4329491340CB607A
:101A9C003B685B6803F40033002B06D0244B5A6878
:101AAC002349BB6913434B6006E0214B5A68BB6961
:101ABC00DB431F4913404B603B685B6803F4803386
:101ACC00002B06D01A4B1A681949BB6913430B60DB
:101ADC0006E0174B1A68BB69DB43154913400B60D2
:101AEC007B6A01337B623B681A687B6A22FA03F3D8
:101AFC00002B7FF4AFAE00BF00BF2C37BD4680BCBF
:101B0C00704700BF0000321000003110000022109E
:101B1C0000002110000012100000111000100240F3
:101B2C000000014000080140000C01400010014081
:101B3C000004014080B485B000AF78600B467B8018
:101B4C007B689A687B881340002B02D00123FB73BF
:101B5C0001E00023FB73FB7B18461437BD4680BCA9
:101B6C00704780B483B000AF78600B467B8013461F
:101B7C007B707B78002B03D07A887B681A6103E03A
:101B8C007B881A047B681A6100BF0C37BD4680BC89
:101B9C00704780B485B000AF78600B467B807B6863
:101BAC00DB68FB607A88FB6813401A04FB68D94336
:101BBC007B880B401A437B681A6100BF1437BD4603
:101BCC0080BC704780B586B000AF78607B68002B16
:101BDC0001D101236CE27B681B6803F00103002B2D
:101BEC0000F08780924B5B6803F00C03042B0CD045
:101BFC008F4B5B6803F00C03082B12D18C4B5B688A
:101C0C0003F48033B3F5803F0BD1894B1B6803F48D
:101C1C000033002B6CD07B685B68002B68D10123F0
:101C2C0046E27B685B68B3F5803F06D1804B1B684E
:101C3C007F4A43F4803313602EE07B685B68002B93
:101C4C000CD17B4B1B687A4A23F480331360784B9E
:101C5C001B68774A23F4802313601DE07B685B6864
:101C6C00B3F5A02F0CD1724B1B68714A43F480233F
:101C7C0013606F4B1B686E4A43F4803313600BE0A8
:101C8C006B4B1B686A4A23F480331360684B1B68E8
:101C9C00674A23F4802313607B685B68002B13D0A6
:101CAC00FFF7B6FC386108E0FFF7B2FC02463B696F
:101CBC00D31A642B01D90323FAE15D4B1B6803F49F
:101CCC000033002BF0D014E0FFF7A2FC386108E0E1
:101CDC00FFF79EFC02463B69D31A642B01D9032300
:101CEC00E6E1534B1B6803F40033002BF0D100E00A
:101CFC0000BF7B681B6803F00203002B63D04C4BC6
:101D0C005B6803F00C03002B0BD0494B5B6803F0B2
:101D1C000C03082B1CD1464B5B6803F48033002B5F
:101D2C0016D1434B1B6803F00203002B05D07B68D4
:101D3C001B69012B01D00123BAE13D4B1B6823F039
:101D4C00F8027B685B69DB00394913430B603AE0AE
:101D5C007B681B69002B20D0364B01221A60FFF7E1
:101D6C0057FC386108E0FFF753FC02463B69D31A75
:101D7C00022B01D903239BE12D4B1B6803F00203BB
:101D8C00002BF0D02A4B1B6823F0F8027B685B69B0
:101D9C00DB00274913430B6015E0264B00221A6029
:101DAC00FFF736FC386108E0FFF732FC02463B696E
:101DBC00D31A022B01D903237AE11D4B1B6803F0C4
:101DCC000203002BF0D17B681B6803F00803002B87
:101DDC003AD07B689B69002B19D0174B01221A60F3
:101DEC00FFF716FC386108E0FFF712FC02463B696E
:101DFC00D31A022B01D903235AE10D4B5B6A03F072
:101E0C000203002BF0D0012000F09AFA1CE00A4BE0
:101E1C0000221A60FFF7FCFB38610FE0FFF7F8FBBC
:101E2C0002463B69D31A022B08D9032340E100BFB9
:101E3C000010024000004242800442429E4B5B6A0A
:101E4C0003F00203002BE9D17B681B6803F0040349
:101E5C00002B00F0A6800023FB75974BDB6903F089
:101E6C008053002B0DD1944BDB69934A43F0805384
:101E7C00D361914BDB6903F08053BB60BB680123DA
:101E8C00FB758E4B1B6803F48073002B18D18B4BA6
:101E9C001B688A4A43F480731360FFF7B9FB3861FF
:101EAC0008E0FFF7B5FB02463B69D31A642B01D956
:101EBC000323FDE0814B1B6803F48073002BF0D0EF
:101ECC007B68DB68012B06D17B4B1B6A7A4A43F09B
:101EDC00010313622DE07B68DB68002B0CD1764B81
:101EEC001B6A754A23F001031362734B1B6A724A17
:101EFC0023F0040313621CE07B68DB68052B0CD118
:101F0C006D4B1B6A6C4A43F0040313626A4B1B6AE9
:101F1C00694A43F0010313620BE0674B1B6A664A84
:101F2C0023F001031362644B1B6A634A23F004031E
:101F3C0013627B68DB68002B15D0FFF769FB3861F7
:101F4C000AE0FFF765FB02463B69D31A41F288327F
:101F5C00934201D90323ABE0574B1B6A03F00203F6
:101F6C00002BEED014E0FFF753FB38610AE0FFF7CB
:101F7C004FFB02463B69D31A41F28832934201D996
:101F8C00032395E04C4B1B6A03F00203002BEED1AC
:101F9C00FB7D012B05D1484BDB69474A23F080536D
:101FAC00D3617B68DB69002B00F08180424B5B685E
:101FBC0003F00C03082B61D07B68DB69022B46D144
:101FCC003F4B00221A60FFF723FB386108E0FFF754
:101FDC001FFB02463B69D31A022B01D9032367E08E
:101FEC00354B1B6803F00073002BF0D17B681B6A28
:101FFC00B3F5803F08D1304B5B6823F400327B682B
:10200C009B682D4913434B602B4B5B6823F4741274
:10201C007B68196A7B685B6A0B43274913434B60E7
:10202C00274B01221A60FFF7F3FA386108E0FFF73B
:10203C00EFFA02463B69D31A022B01D9032337E08E
:10204C001D4B1B6803F00073002BF0D02FE01C4BD2
:10205C0000221A60FFF7DCFA386108E0FFF7D8FAC3
:10206C0002463B69D31A022B01D9032320E0124B01
:10207C001B6803F00073002BF0D118E07B68DB6960
:10208C00012B01D1012313E00B4B5B68FB60FB6858
:10209C0003F480327B681B6A9A4206D1FB6803F416
:1020AC0070127B685B6A9A4201D0012300E0002326
:1020BC0018461837BD4680BD001002400070004025
:1020CC006000424280B584B000AF786039607B68B4
:1020DC00002B01D10123D0E06A4B1B6803F00703EE
:1020EC003A689A4210D9674B1B6823F0070265497E
:1020FC003B6813430B60634B1B6803F007033A68A0
:10210C009A4201D00123B8E07B681B6803F00203FC
:10211C00002B20D07B681B6803F00403002B05D038
:10212C00594B5B68584A43F4E06353607B681B6807
:10213C0003F00803002B05D0534B5B68524A43F461
:10214C0060535360504B5B6823F0F0027B689B68D4
:10215C004D4913434B607B681B6803F00103002B54
:10216C0040D07B685B68012B07D1474B1B6803F49D
:10217C000033002B15D101237FE07B685B68022BB9
:10218C0007D1414B1B6803F00073002B09D10123CD
:10219C0073E03D4B1B6803F00203002B01D10123BC
:1021AC006BE0394B5B6823F003027B685B68364954
:1021BC0013434B60FFF72CFAF8600AE0FFF728FA9C
:1021CC000246FB68D31A41F28832934201D90323A9
:1021DC0053E02D4B5B6803F00C027B685B689B0043
:1021EC009A42EBD1274B1B6803F007033A689A42DB
:1021FC0010D2244B1B6823F0070222493B6813437F
:10220C000B60204B1B6803F007033A689A4201D01D
:10221C00012332E07B681B6803F00403002B08D019
:10222C00194B5B6823F4E0627B68DB681649134347
:10223C004B607B681B6803F00803002B09D0124B22
:10224C005B6823F460527B681B69DB000E49134307
:10225C004B6000F021F802460B4B5B681B0903F046
:10226C000F030A49CB5C22FA03F3094A1360094BAA
:10227C001B681846FFF78AF9002318461037BD462D
:10228C0080BD00BF0020024000100240F82B000867
:10229C00480000204C00002080B487B000AF002321
:1022AC00FB600023BB6000237B6100237B60002369
:1022BC003B611E4B5B68FB60FB6803F00C03042B5B
:1022CC0002D0082B03D027E0194B3B6127E0FB68B9
:1022DC009B0C03F00F03174AD35C7B60FB6803F481
:1022EC008033002B10D0114B5B685B0C03F00103A7
:1022FC00114AD35CBB607B680D4A02FB03F2BB68DE
:10230C00B2FBF3F37B6104E07B680C4A02FB03F342
:10231C007B617B693B6102E0054B3B6100BF3B6924
:10232C0018461C37BD4680BC704700BF00100240E9
:10233C0000127A00082C0008182C000800093D0037
:10234C0080B485B000AF78600A4B1B680A4AA2FBC8
:10235C0003235B0A7A6802FB03F3FB6000BFFB6894
:10236C005A1EFA60002BF9D100BF00BF1437BD46CE
:10237C0080BC704748000020D34D621080B582B0FD
:10238C0000AF78607B68002B01D1012341E07B68B2
:10239C0093F83D30DBB2002B06D17B68002283F82A
:1023AC003C207868FFF75AF87B68022283F83D20BE
:1023BC007B681A687B6804331946104600F056FA9D
:1023CC007B68012283F846207B68012283F83E203B
:1023DC007B68012283F83F207B68012283F8402030
:1023EC007B68012283F841207B68012283F842201C
:1023FC007B68012283F843207B68012283F8442008
:10240C007B68012283F845207B68012283F83D20FC
:10241C00002318460837BD4680BD000080B485B047
:10242C0000AF78607B6893F83D30DBB2012B01D0B4
:10243C00012335E07B68022283F83D207B681B6812
:10244C00DA687B681B6842F00102DA607B681B6803
:10245C00164A934209D07B681B68B3F1804F04D0B5
:10246C007B681B68124A934211D17B681B689B687E
:10247C0003F00703FB60FB68062B10D07B681B681E
:10248C001A687B681B6842F001021A6007E07B68DF
:10249C001B681A687B681B6842F001021A600023F3
:1024AC0018461437BD4680BC704700BF002C014055
:1024BC000004004080B584B000AF78607B681B6876
:1024CC00DB68FB607B681B681B69BB60BB6803F047
:1024DC000203002B20D0FB6803F00203002B1BD05F
:1024EC007B681B686FF002021A617B6801221A7705
:1024FC007B681B689B6903F00303002B03D078688F
:10250C0000F098F905E0786800F08BF9786800F035
:10251C009AF97B6800221A77BB6803F00403002B3E
:10252C0020D0FB6803F00403002B1BD07B681B68D6
:10253C006FF004021A617B6802221A777B681B68B1
:10254C009B6903F44073002B03D0786800F072F998
:10255C0005E0786800F065F9786800F074F97B683C
:10256C0000221A77BB6803F00803002B20D0FB680D
:10257C0003F00803002B1BD07B681B686FF008026C
:10258C001A617B6804221A777B681B68DB6903F08D
:10259C000303002B03D0786800F04CF905E0786851
:1025AC0000F03FF9786800F04EF97B6800221A774A
:1025BC00BB6803F01003002B20D0FB6803F0100362
:1025CC00002B1BD07B681B686FF010021A617B68B4
:1025DC0008221A777B681B68DB6903F44073002BB5
:1025EC0003D0786800F026F905E0786800F019F956
:1025FC00786800F028F97B6800221A77BB6803F032
:10260C000103002B0CD0FB6803F00103002B07D057
:10261C007B681B686FF001021A617868FEF776FE22
:10262C00BB6803F08003002B0CD0FB6803F0800325
:10263C00002B07D07B681B686FF080021A617868EA
:10264C0000F06FFABB6803F04003002B0CD0FB6862
:10265C0003F04003002B07D07B681B686FF040022F
:10266C001A61786800F0F8F8BB6803F02003002BBF
:10267C000CD0FB6803F02003002B07D07B681B6891
:10268C006FF020021A61786800F042FA00BF103730
:10269C00BD4680BD80B584B000AF78603960002342
:1026AC00FB737B6893F83C30012B01D10223B4E01F
:1026BC007B68012283F83C207B68022283F83D2052
:1026CC007B681B689B68BB60BB6823F07703BB60AF
:1026DC00BB6823F47F43BB607B681B68BA689A6055
:1026EC003B681B68B3F5005F3ED0B3F5005F00F2AA
:1026FC008780B3F5805F00F08680B3F5805F7FD86C
:10270C00702B1AD0702B7BD8602B50D0602B77D8C5
:10271C00502B3CD0502B73D8402B58D0402B6FD81B
:10272C00302B64D0302B6BD8202B60D0202B67D86B
:10273C00002B5CD0102B5AD062E07B6818683B6889
:10274C0099683B685A683B68DB6800F06AF97B68FB
:10275C001B689B68BB60BB6843F07703BB607B68FE
:10276C001B68BA689A604FE07B6818683B68996888
:10277C003B685A683B68DB6800F053F97B681B6860
:10278C009A687B681B6842F480429A603CE07B68E4
:10279C0018683B6859683B68DB681A4600F0CAF851
:1027AC007B681B685021184600F021F92CE07B68EF
:1027BC0018683B6859683B68DB681A4600F0E8F813
:1027CC007B681B686021184600F011F91CE07B68DF
:1027DC0018683B6859683B68DB681A4600F0AAF831
:1027EC007B681B684021184600F001F90CE07B68FF
:1027FC001A683B681B681946104600F0F8F803E0AD
:10280C000123FB7300E000BF7B68012283F83D20AD
:10281C007B68002283F83C20FB7B18461037BD46B2
:10282C0080BD80B483B000AF786000BF0C37BD466C
:10283C0080BC704780B483B000AF786000BF0C37A9
:10284C00BD4680BC704780B483B000AF786000BFD9
:10285C000C37BD4680BC704780B483B000AF786045
:10286C0000BF0C37BD4680BC7047000080B485B0FB
:10287C0000AF786039607B681B68FB607B682B4A13
:10288C00934207D07B68B3F1804F03D07B68284A12
:10289C00934208D1FB6823F07003FB603B685B68D4
:1028AC00FA681343FB607B68204A934207D07B682D
:1028BC00B3F1804F03D07B681D4A934208D1FB686B
:1028CC0023F44073FB603B68DB68FA681343FB60DE
:1028DC00FB6823F080023B685B691343FB607B68F9
:1028EC00FA681A603B689A687B68DA623B681A6817
:1028FC007B689A627B680D4A934203D13B681A69E4
:10290C007B681A637B6801225A617B681B6903F040
:10291C000103002B05D07B681B6923F001027B6847
:10292C001A6100BF1437BD4680BC7047002C0140B3
:10293C000004004080B487B000AFF860B9607A60E2
:10294C00FB681B6A7B61FB681B6A23F00102FB6856
:10295C001A62FB689B693B613B6923F0F0033B61A6
:10296C007B681B013A6913433B617B6923F00A03C3
:10297C007B617A69BB6813437B61FB683A699A6136
:10298C00FB687A691A6200BF1C37BD4680BC704771
:10299C0080B487B000AFF860B9607A60FB681B6ADE
:1029AC007B61FB681B6A23F01002FB681A62FB68F0
:1029BC009B693B613B6923F470433B617B681B0360
:1029CC003A6913433B617B6923F0A0037B61BB68CD
:1029DC001B017A6913437B61FB683A699A61FB6856
:1029EC007A691A6200BF1C37BD4680BC704780B440
:1029FC0085B000AF786039607B689B68FB60FB68D2
:102A0C0023F07003FB603A68FB68134343F0070341
:102A1C00FB607B68FA689A6000BF1437BD4680BCC7
:102A2C00704780B487B000AFF860B9607A603B60E3
:102A3C00FB689B687B617B6923F47F437B613B680C
:102A4C001A027B681A43BB6813437A6913437B6190
:102A5C00FB687A699A6000BF1C37BD4680BC704722
:102A6C0080B485B000AF786039607B6893F83C30F7
:102A7C00012B01D1022341E07B68012283F83C2029
:102A8C007B68022283F83D207B681B685B68FB60D7
:102A9C007B681B689B68BB60FB6823F07003FB6062
:102AAC003B681B68FA681343FB607B681B68FA6819
:102ABC005A607B681B68144A934209D07B681B6878
:102ACC00B3F1804F04D07B681B68104A93420CD141
:102ADC00BB6823F08003BB603B685B68BA68134338
:102AEC00BB607B681B68BA689A607B68012283F8BC
:102AFC003D207B68002283F83C20002318461437C5
:102B0C00BD4680BC704700BF002C01400004004053
:102B1C0080B483B000AF786000BF0C37BD4680BC7A
:102B2C00704780B483B000AF786000BF0C37BD46EF
:102B3C0080BC704770B500260C4D0D4C641BA41066
:102B4C00A64209D100F022F800260A4D0A4C641B5B
:102B5C00A410A64205D170BD55F8043B9847013628
:102B6C00EEE755F8043B98470136F2E71C2C0008B9
:102B7C001C2C00081C2C0008202C000803460244C6
:102B8C00934200D1704703F8011BF9E7F8B500BF79
:102B9C00F8BC08BC9E467047F8B500BFF8BC08BC32
:042BAC009E4670478A
:102BB000000000000000010100000101010100000F
:102BC00001000001000000000001010001000001FF
:102BD00001000000010000010000000100000000F1
:102BE00000000000010101010000000000000000E1
:102BF00000000001000000000000000000000000D4
:102C00000102030406070809020304050607080970
:0C2C10000A0B0C0D0E0F1010010200004A
:042C1C00310100087A
:042C20000D0100089A
:102C2400000000000100000002000000010002009A
:102C34000400080010002000400000008000000193
:102C44000002000400080010002000000004000836
:102C54000010002003000000050000000200000036
:102C6400050000000300000000127A0010000000BC
:042C7400010000005B
:0400000508001521B9
:00000001FF
